{
  "contractName": "GameItem",
  "abi": [
    {
      "inputs": [],
      "stateMutability": "nonpayable",
      "type": "constructor"
    },
    {
      "anonymous": false,
      "inputs": [
        {
          "indexed": true,
          "internalType": "address",
          "name": "owner",
          "type": "address"
        },
        {
          "indexed": true,
          "internalType": "address",
          "name": "approved",
          "type": "address"
        },
        {
          "indexed": true,
          "internalType": "uint256",
          "name": "tokenId",
          "type": "uint256"
        }
      ],
      "name": "Approval",
      "type": "event"
    },
    {
      "anonymous": false,
      "inputs": [
        {
          "indexed": true,
          "internalType": "address",
          "name": "owner",
          "type": "address"
        },
        {
          "indexed": true,
          "internalType": "address",
          "name": "operator",
          "type": "address"
        },
        {
          "indexed": false,
          "internalType": "bool",
          "name": "approved",
          "type": "bool"
        }
      ],
      "name": "ApprovalForAll",
      "type": "event"
    },
    {
      "anonymous": false,
      "inputs": [
        {
          "indexed": true,
          "internalType": "address",
          "name": "previousOwner",
          "type": "address"
        },
        {
          "indexed": true,
          "internalType": "address",
          "name": "newOwner",
          "type": "address"
        }
      ],
      "name": "OwnershipTransferred",
      "type": "event"
    },
    {
      "anonymous": false,
      "inputs": [
        {
          "indexed": true,
          "internalType": "address",
          "name": "from",
          "type": "address"
        },
        {
          "indexed": true,
          "internalType": "address",
          "name": "to",
          "type": "address"
        },
        {
          "indexed": true,
          "internalType": "uint256",
          "name": "tokenId",
          "type": "uint256"
        }
      ],
      "name": "Transfer",
      "type": "event"
    },
    {
      "inputs": [
        {
          "internalType": "address",
          "name": "to",
          "type": "address"
        },
        {
          "internalType": "uint256",
          "name": "tokenId",
          "type": "uint256"
        }
      ],
      "name": "approve",
      "outputs": [],
      "stateMutability": "nonpayable",
      "type": "function"
    },
    {
      "inputs": [
        {
          "internalType": "address",
          "name": "owner",
          "type": "address"
        }
      ],
      "name": "balanceOf",
      "outputs": [
        {
          "internalType": "uint256",
          "name": "",
          "type": "uint256"
        }
      ],
      "stateMutability": "view",
      "type": "function",
      "constant": true
    },
    {
      "inputs": [
        {
          "internalType": "uint256",
          "name": "tokenId",
          "type": "uint256"
        }
      ],
      "name": "getApproved",
      "outputs": [
        {
          "internalType": "address",
          "name": "",
          "type": "address"
        }
      ],
      "stateMutability": "view",
      "type": "function",
      "constant": true
    },
    {
      "inputs": [
        {
          "internalType": "address",
          "name": "owner",
          "type": "address"
        },
        {
          "internalType": "address",
          "name": "operator",
          "type": "address"
        }
      ],
      "name": "isApprovedForAll",
      "outputs": [
        {
          "internalType": "bool",
          "name": "",
          "type": "bool"
        }
      ],
      "stateMutability": "view",
      "type": "function",
      "constant": true
    },
    {
      "inputs": [],
      "name": "name",
      "outputs": [
        {
          "internalType": "string",
          "name": "",
          "type": "string"
        }
      ],
      "stateMutability": "view",
      "type": "function",
      "constant": true
    },
    {
      "inputs": [],
      "name": "owner",
      "outputs": [
        {
          "internalType": "address",
          "name": "",
          "type": "address"
        }
      ],
      "stateMutability": "view",
      "type": "function",
      "constant": true
    },
    {
      "inputs": [
        {
          "internalType": "uint256",
          "name": "tokenId",
          "type": "uint256"
        }
      ],
      "name": "ownerOf",
      "outputs": [
        {
          "internalType": "address",
          "name": "",
          "type": "address"
        }
      ],
      "stateMutability": "view",
      "type": "function",
      "constant": true
    },
    {
      "inputs": [
        {
          "internalType": "address",
          "name": "",
          "type": "address"
        }
      ],
      "name": "ownerQuery",
      "outputs": [
        {
          "internalType": "uint256",
          "name": "",
          "type": "uint256"
        }
      ],
      "stateMutability": "view",
      "type": "function",
      "constant": true
    },
    {
      "inputs": [],
      "name": "renounceOwnership",
      "outputs": [],
      "stateMutability": "nonpayable",
      "type": "function"
    },
    {
      "inputs": [
        {
          "internalType": "address",
          "name": "from",
          "type": "address"
        },
        {
          "internalType": "address",
          "name": "to",
          "type": "address"
        },
        {
          "internalType": "uint256",
          "name": "tokenId",
          "type": "uint256"
        }
      ],
      "name": "safeTransferFrom",
      "outputs": [],
      "stateMutability": "nonpayable",
      "type": "function"
    },
    {
      "inputs": [
        {
          "internalType": "address",
          "name": "from",
          "type": "address"
        },
        {
          "internalType": "address",
          "name": "to",
          "type": "address"
        },
        {
          "internalType": "uint256",
          "name": "tokenId",
          "type": "uint256"
        },
        {
          "internalType": "bytes",
          "name": "_data",
          "type": "bytes"
        }
      ],
      "name": "safeTransferFrom",
      "outputs": [],
      "stateMutability": "nonpayable",
      "type": "function"
    },
    {
      "inputs": [
        {
          "internalType": "address",
          "name": "operator",
          "type": "address"
        },
        {
          "internalType": "bool",
          "name": "approved",
          "type": "bool"
        }
      ],
      "name": "setApprovalForAll",
      "outputs": [],
      "stateMutability": "nonpayable",
      "type": "function"
    },
    {
      "inputs": [
        {
          "internalType": "bytes4",
          "name": "interfaceId",
          "type": "bytes4"
        }
      ],
      "name": "supportsInterface",
      "outputs": [
        {
          "internalType": "bool",
          "name": "",
          "type": "bool"
        }
      ],
      "stateMutability": "view",
      "type": "function",
      "constant": true
    },
    {
      "inputs": [],
      "name": "symbol",
      "outputs": [
        {
          "internalType": "string",
          "name": "",
          "type": "string"
        }
      ],
      "stateMutability": "view",
      "type": "function",
      "constant": true
    },
    {
      "inputs": [
        {
          "internalType": "uint256",
          "name": "tokenId",
          "type": "uint256"
        }
      ],
      "name": "tokenURI",
      "outputs": [
        {
          "internalType": "string",
          "name": "",
          "type": "string"
        }
      ],
      "stateMutability": "view",
      "type": "function",
      "constant": true
    },
    {
      "inputs": [
        {
          "internalType": "address",
          "name": "from",
          "type": "address"
        },
        {
          "internalType": "address",
          "name": "to",
          "type": "address"
        },
        {
          "internalType": "uint256",
          "name": "tokenId",
          "type": "uint256"
        }
      ],
      "name": "transferFrom",
      "outputs": [],
      "stateMutability": "nonpayable",
      "type": "function"
    },
    {
      "inputs": [
        {
          "internalType": "address",
          "name": "newOwner",
          "type": "address"
        }
      ],
      "name": "transferOwnership",
      "outputs": [],
      "stateMutability": "nonpayable",
      "type": "function"
    },
    {
      "inputs": [],
      "name": "totalSupply",
      "outputs": [
        {
          "internalType": "uint256",
          "name": "",
          "type": "uint256"
        }
      ],
      "stateMutability": "view",
      "type": "function",
      "constant": true
    },
    {
      "inputs": [],
      "name": "baseTokenURI",
      "outputs": [
        {
          "internalType": "string",
          "name": "",
          "type": "string"
        }
      ],
      "stateMutability": "pure",
      "type": "function",
      "constant": true
    },
    {
      "inputs": [],
      "name": "contractURI",
      "outputs": [
        {
          "internalType": "string",
          "name": "",
          "type": "string"
        }
      ],
      "stateMutability": "pure",
      "type": "function",
      "constant": true
    },
    {
      "inputs": [
        {
          "internalType": "address",
          "name": "player",
          "type": "address"
        },
        {
          "internalType": "string",
          "name": "tokenURI",
          "type": "string"
        }
      ],
      "name": "awardItem",
      "outputs": [
        {
          "internalType": "uint256",
          "name": "",
          "type": "uint256"
        }
      ],
      "stateMutability": "nonpayable",
      "type": "function"
    }
  ],
  "bytecode": "0x60806040523480156200001157600080fd5b506040518060400160405280600881526020017f47616d654974656d0000000000000000000000000000000000000000000000008152506040518060400160405280600381526020017f47494d000000000000000000000000000000000000000000000000000000000081525081600090805190602001906200009692919062000171565b508060019080519060200190620000af92919062000171565b5050506000620000c46200016960201b60201c565b905080600760006101000a81548173ffffffffffffffffffffffffffffffffffffffff021916908373ffffffffffffffffffffffffffffffffffffffff1602179055508073ffffffffffffffffffffffffffffffffffffffff16600073ffffffffffffffffffffffffffffffffffffffff167f8be0079c531659141344cd1fd0a4f28419497f9722a3daafe3b4186f6b6457e060405160405180910390a35062000286565b600033905090565b8280546200017f9062000221565b90600052602060002090601f016020900481019282620001a35760008555620001ef565b82601f10620001be57805160ff1916838001178555620001ef565b82800160010185558215620001ef579182015b82811115620001ee578251825591602001919060010190620001d1565b5b509050620001fe919062000202565b5090565b5b808211156200021d57600081600090555060010162000203565b5090565b600060028204905060018216806200023a57607f821691505b6020821081141562000251576200025062000257565b5b50919050565b7f4e487b7100000000000000000000000000000000000000000000000000000000600052602260045260246000fd5b61312a80620002966000396000f3fe608060405234801561001057600080fd5b50600436106101375760003560e01c8063715018a6116100b8578063c87b56dd1161007c578063c87b56dd1461033a578063cf3783431461036a578063d547cfb71461039a578063e8a3d485146103b8578063e985e9c5146103d6578063f2fde38b1461040657610137565b8063715018a6146102bc5780638da5cb5b146102c657806395d89b41146102e4578063a22cb46514610302578063b88d4fde1461031e57610137565b8063208917cb116100ff578063208917cb146101f457806323b872dd1461022457806342842e0e146102405780636352211e1461025c57806370a082311461028c57610137565b806301ffc9a71461013c57806306fdde031461016c578063081812fc1461018a578063095ea7b3146101ba57806318160ddd146101d6575b600080fd5b61015660048036038101906101519190612179565b610422565b60405161016391906129e3565b60405180910390f35b610174610504565b60405161018191906129fe565b60405180910390f35b6101a4600480360381019061019f91906121cb565b610596565b6040516101b1919061297c565b60405180910390f35b6101d460048036038101906101cf919061213d565b61061b565b005b6101de610733565b6040516101eb9190612c60565b60405180910390f35b61020e60048036038101906102099190611f7e565b610744565b60405161021b9190612c60565b60405180910390f35b61023e60048036038101906102399190611fe3565b61075c565b005b61025a60048036038101906102559190611fe3565b6107bc565b005b610276600480360381019061027191906121cb565b6107dc565b604051610283919061297c565b60405180910390f35b6102a660048036038101906102a19190611f7e565b61088e565b6040516102b39190612c60565b60405180910390f35b6102c4610946565b005b6102ce610a83565b6040516102db919061297c565b60405180910390f35b6102ec610aad565b6040516102f991906129fe565b60405180910390f35b61031c600480360381019061031791906120ad565b610b3f565b005b61033860048036038101906103339190612032565b610cc0565b005b610354600480360381019061034f91906121cb565b610d22565b60405161036191906129fe565b60405180910390f35b610384600480360381019061037f91906120e9565b610e74565b6040516103919190612c60565b60405180910390f35b6103a2610f6c565b6040516103af91906129fe565b60405180910390f35b6103c0610f8c565b6040516103cd91906129fe565b60405180910390f35b6103f060048036038101906103eb9190611fa7565b610fac565b6040516103fd91906129e3565b60405180910390f35b610420600480360381019061041b9190611f7e565b611040565b005b60007f80ac58cd000000000000000000000000000000000000000000000000000000007bffffffffffffffffffffffffffffffffffffffffffffffffffffffff1916827bffffffffffffffffffffffffffffffffffffffffffffffffffffffff191614806104ed57507f5b5e139f000000000000000000000000000000000000000000000000000000007bffffffffffffffffffffffffffffffffffffffffffffffffffffffff1916827bffffffffffffffffffffffffffffffffffffffffffffffffffffffff1916145b806104fd57506104fc826111ec565b5b9050919050565b60606000805461051390612ec0565b80601f016020809104026020016040519081016040528092919081815260200182805461053f90612ec0565b801561058c5780601f106105615761010080835404028352916020019161058c565b820191906000526020600020905b81548152906001019060200180831161056f57829003601f168201915b5050505050905090565b60006105a182611256565b6105e0576040517f08c379a00000000000000000000000000000000000000000000000000000000081526004016105d790612ba0565b60405180910390fd5b6004600083815260200190815260200160002060009054906101000a900473ffffffffffffffffffffffffffffffffffffffff169050919050565b6000610626826107dc565b90508073ffffffffffffffffffffffffffffffffffffffff168373ffffffffffffffffffffffffffffffffffffffff161415610697576040517f08c379a000000000000000000000000000000000000000000000000000000000815260040161068e90612c20565b60405180910390fd5b8073ffffffffffffffffffffffffffffffffffffffff166106b66112c2565b73ffffffffffffffffffffffffffffffffffffffff1614806106e557506106e4816106df6112c2565b610fac565b5b610724576040517f08c379a000000000000000000000000000000000000000000000000000000000815260040161071b90612ae0565b60405180910390fd5b61072e83836112ca565b505050565b600061073f6008611383565b905090565b60096020528060005260406000206000915090505481565b61076d6107676112c2565b82611391565b6107ac576040517f08c379a00000000000000000000000000000000000000000000000000000000081526004016107a390612c40565b60405180910390fd5b6107b783838361146f565b505050565b6107d783838360405180602001604052806000815250610cc0565b505050565b6000806002600084815260200190815260200160002060009054906101000a900473ffffffffffffffffffffffffffffffffffffffff169050600073ffffffffffffffffffffffffffffffffffffffff168173ffffffffffffffffffffffffffffffffffffffff161415610885576040517f08c379a000000000000000000000000000000000000000000000000000000000815260040161087c90612b20565b60405180910390fd5b80915050919050565b60008073ffffffffffffffffffffffffffffffffffffffff168273ffffffffffffffffffffffffffffffffffffffff1614156108ff576040517f08c379a00000000000000000000000000000000000000000000000000000000081526004016108f690612b00565b60405180910390fd5b600360008373ffffffffffffffffffffffffffffffffffffffff1673ffffffffffffffffffffffffffffffffffffffff168152602001908152602001600020549050919050565b61094e6112c2565b73ffffffffffffffffffffffffffffffffffffffff1661096c610a83565b73ffffffffffffffffffffffffffffffffffffffff16146109c2576040517f08c379a00000000000000000000000000000000000000000000000000000000081526004016109b990612bc0565b60405180910390fd5b600073ffffffffffffffffffffffffffffffffffffffff16600760009054906101000a900473ffffffffffffffffffffffffffffffffffffffff1673ffffffffffffffffffffffffffffffffffffffff167f8be0079c531659141344cd1fd0a4f28419497f9722a3daafe3b4186f6b6457e060405160405180910390a36000600760006101000a81548173ffffffffffffffffffffffffffffffffffffffff021916908373ffffffffffffffffffffffffffffffffffffffff160217905550565b6000600760009054906101000a900473ffffffffffffffffffffffffffffffffffffffff16905090565b606060018054610abc90612ec0565b80601f0160208091040260200160405190810160405280929190818152602001828054610ae890612ec0565b8015610b355780601f10610b0a57610100808354040283529160200191610b35565b820191906000526020600020905b815481529060010190602001808311610b1857829003601f168201915b5050505050905090565b610b476112c2565b73ffffffffffffffffffffffffffffffffffffffff168273ffffffffffffffffffffffffffffffffffffffff161415610bb5576040517f08c379a0000000000000000000000000000000000000000000000000000000008152600401610bac90612aa0565b60405180910390fd5b8060056000610bc26112c2565b73ffffffffffffffffffffffffffffffffffffffff1673ffffffffffffffffffffffffffffffffffffffff16815260200190815260200160002060008473ffffffffffffffffffffffffffffffffffffffff1673ffffffffffffffffffffffffffffffffffffffff16815260200190815260200160002060006101000a81548160ff0219169083151502179055508173ffffffffffffffffffffffffffffffffffffffff16610c6f6112c2565b73ffffffffffffffffffffffffffffffffffffffff167f17307eab39ab6107e8899845ad3d59bd9653f200f220920489ca2b5937696c3183604051610cb491906129e3565b60405180910390a35050565b610cd1610ccb6112c2565b83611391565b610d10576040517f08c379a0000000000000000000000000000000000000000000000000000000008152600401610d0790612c40565b60405180910390fd5b610d1c848484846116cb565b50505050565b6060610d2d82611256565b610d6c576040517f08c379a0000000000000000000000000000000000000000000000000000000008152600401610d6390612b80565b60405180910390fd5b6000600660008481526020019081526020016000208054610d8c90612ec0565b80601f0160208091040260200160405190810160405280929190818152602001828054610db890612ec0565b8015610e055780601f10610dda57610100808354040283529160200191610e05565b820191906000526020600020905b815481529060010190602001808311610de857829003601f168201915b505050505090506000610e16611727565b9050600081511415610e2c578192505050610e6f565b600082511115610e61578082604051602001610e49929190612958565b60405160208183030381529060405292505050610e6f565b610e6a84611747565b925050505b919050565b6000610e7e6112c2565b73ffffffffffffffffffffffffffffffffffffffff16610e9c610a83565b73ffffffffffffffffffffffffffffffffffffffff1614610ef2576040517f08c379a0000000000000000000000000000000000000000000000000000000008152600401610ee990612bc0565b60405180910390fd5b610efc60086117ee565b6000610f086008611383565b9050610f148482611804565b610f1e81846119d2565b80600960008673ffffffffffffffffffffffffffffffffffffffff1673ffffffffffffffffffffffffffffffffffffffff168152602001908152602001600020819055508091505092915050565b60606040518060600160405280602e81526020016130c7602e9139905090565b606060405180606001604052806031815260200161309660319139905090565b6000600560008473ffffffffffffffffffffffffffffffffffffffff1673ffffffffffffffffffffffffffffffffffffffff16815260200190815260200160002060008373ffffffffffffffffffffffffffffffffffffffff1673ffffffffffffffffffffffffffffffffffffffff16815260200190815260200160002060009054906101000a900460ff16905092915050565b6110486112c2565b73ffffffffffffffffffffffffffffffffffffffff16611066610a83565b73ffffffffffffffffffffffffffffffffffffffff16146110bc576040517f08c379a00000000000000000000000000000000000000000000000000000000081526004016110b390612bc0565b60405180910390fd5b600073ffffffffffffffffffffffffffffffffffffffff168173ffffffffffffffffffffffffffffffffffffffff16141561112c576040517f08c379a000000000000000000000000000000000000000000000000000000000815260040161112390612a40565b60405180910390fd5b8073ffffffffffffffffffffffffffffffffffffffff16600760009054906101000a900473ffffffffffffffffffffffffffffffffffffffff1673ffffffffffffffffffffffffffffffffffffffff167f8be0079c531659141344cd1fd0a4f28419497f9722a3daafe3b4186f6b6457e060405160405180910390a380600760006101000a81548173ffffffffffffffffffffffffffffffffffffffff021916908373ffffffffffffffffffffffffffffffffffffffff16021790555050565b60007f01ffc9a7000000000000000000000000000000000000000000000000000000007bffffffffffffffffffffffffffffffffffffffffffffffffffffffff1916827bffffffffffffffffffffffffffffffffffffffffffffffffffffffff1916149050919050565b60008073ffffffffffffffffffffffffffffffffffffffff166002600084815260200190815260200160002060009054906101000a900473ffffffffffffffffffffffffffffffffffffffff1673ffffffffffffffffffffffffffffffffffffffff1614159050919050565b600033905090565b816004600083815260200190815260200160002060006101000a81548173ffffffffffffffffffffffffffffffffffffffff021916908373ffffffffffffffffffffffffffffffffffffffff160217905550808273ffffffffffffffffffffffffffffffffffffffff1661133d836107dc565b73ffffffffffffffffffffffffffffffffffffffff167f8c5be1e5ebec7d5bd14f71427d1e84f3dd0314c0f7b2291e5b200ac8c7c3b92560405160405180910390a45050565b600081600001549050919050565b600061139c82611256565b6113db576040517f08c379a00000000000000000000000000000000000000000000000000000000081526004016113d290612ac0565b60405180910390fd5b60006113e6836107dc565b90508073ffffffffffffffffffffffffffffffffffffffff168473ffffffffffffffffffffffffffffffffffffffff16148061145557508373ffffffffffffffffffffffffffffffffffffffff1661143d84610596565b73ffffffffffffffffffffffffffffffffffffffff16145b8061146657506114658185610fac565b5b91505092915050565b8273ffffffffffffffffffffffffffffffffffffffff1661148f826107dc565b73ffffffffffffffffffffffffffffffffffffffff16146114e5576040517f08c379a00000000000000000000000000000000000000000000000000000000081526004016114dc90612be0565b60405180910390fd5b600073ffffffffffffffffffffffffffffffffffffffff168273ffffffffffffffffffffffffffffffffffffffff161415611555576040517f08c379a000000000000000000000000000000000000000000000000000000000815260040161154c90612a80565b60405180910390fd5b611560838383611a46565b61156b6000826112ca565b6001600360008573ffffffffffffffffffffffffffffffffffffffff1673ffffffffffffffffffffffffffffffffffffffff16815260200190815260200160002060008282546115bb9190612dd6565b925050819055506001600360008473ffffffffffffffffffffffffffffffffffffffff1673ffffffffffffffffffffffffffffffffffffffff16815260200190815260200160002060008282546116129190612d4f565b92505081905550816002600083815260200190815260200160002060006101000a81548173ffffffffffffffffffffffffffffffffffffffff021916908373ffffffffffffffffffffffffffffffffffffffff160217905550808273ffffffffffffffffffffffffffffffffffffffff168473ffffffffffffffffffffffffffffffffffffffff167fddf252ad1be2c89b69c2b068fc378daa952ba7f163c4a11628f55a4df523b3ef60405160405180910390a4505050565b6116d684848461146f565b6116e284848484611a4b565b611721576040517f08c379a000000000000000000000000000000000000000000000000000000000815260040161171890612a20565b60405180910390fd5b50505050565b60606040518060600160405280602e81526020016130c7602e9139905090565b606061175282611256565b611791576040517f08c379a000000000000000000000000000000000000000000000000000000000815260040161178890612c00565b60405180910390fd5b600061179b611727565b905060008151116117bb57604051806020016040528060008152506117e6565b806117c584611be2565b6040516020016117d6929190612958565b6040516020818303038152906040525b915050919050565b6001816000016000828254019250508190555050565b600073ffffffffffffffffffffffffffffffffffffffff168273ffffffffffffffffffffffffffffffffffffffff161415611874576040517f08c379a000000000000000000000000000000000000000000000000000000000815260040161186b90612b60565b60405180910390fd5b61187d81611256565b156118bd576040517f08c379a00000000000000000000000000000000000000000000000000000000081526004016118b490612a60565b60405180910390fd5b6118c960008383611a46565b6001600360008473ffffffffffffffffffffffffffffffffffffffff1673ffffffffffffffffffffffffffffffffffffffff16815260200190815260200160002060008282546119199190612d4f565b92505081905550816002600083815260200190815260200160002060006101000a81548173ffffffffffffffffffffffffffffffffffffffff021916908373ffffffffffffffffffffffffffffffffffffffff160217905550808273ffffffffffffffffffffffffffffffffffffffff16600073ffffffffffffffffffffffffffffffffffffffff167fddf252ad1be2c89b69c2b068fc378daa952ba7f163c4a11628f55a4df523b3ef60405160405180910390a45050565b6119db82611256565b611a1a576040517f08c379a0000000000000000000000000000000000000000000000000000000008152600401611a1190612b40565b60405180910390fd5b80600660008481526020019081526020016000209080519060200190611a41929190611da2565b505050565b505050565b6000611a6c8473ffffffffffffffffffffffffffffffffffffffff16611d8f565b15611bd5578373ffffffffffffffffffffffffffffffffffffffff1663150b7a02611a956112c2565b8786866040518563ffffffff1660e01b8152600401611ab79493929190612997565b602060405180830381600087803b158015611ad157600080fd5b505af1925050508015611b0257506040513d601f19601f82011682018060405250810190611aff91906121a2565b60015b611b85573d8060008114611b32576040519150601f19603f3d011682016040523d82523d6000602084013e611b37565b606091505b50600081511415611b7d576040517f08c379a0000000000000000000000000000000000000000000000000000000008152600401611b7490612a20565b60405180910390fd5b805181602001fd5b63150b7a0260e01b7bffffffffffffffffffffffffffffffffffffffffffffffffffffffff1916817bffffffffffffffffffffffffffffffffffffffffffffffffffffffff191614915050611bda565b600190505b949350505050565b60606000821415611c2a576040518060400160405280600181526020017f30000000000000000000000000000000000000000000000000000000000000008152509050611d8a565b600082905060005b60008214611c5c578080611c4590612ef2565b915050600a82611c559190612da5565b9150611c32565b60008167ffffffffffffffff811115611c9e577f4e487b7100000000000000000000000000000000000000000000000000000000600052604160045260246000fd5b6040519080825280601f01601f191660200182016040528015611cd05781602001600182028036833780820191505090505b5090505b60008514611d8357600182611ce99190612dd6565b9150600a85611cf89190612f3b565b6030611d049190612d4f565b60f81b818381518110611d40577f4e487b7100000000000000000000000000000000000000000000000000000000600052603260045260246000fd5b60200101907effffffffffffffffffffffffffffffffffffffffffffffffffffffffffffff1916908160001a905350600a85611d7c9190612da5565b9450611cd4565b8093505050505b919050565b600080823b905060008111915050919050565b828054611dae90612ec0565b90600052602060002090601f016020900481019282611dd05760008555611e17565b82601f10611de957805160ff1916838001178555611e17565b82800160010185558215611e17579182015b82811115611e16578251825591602001919060010190611dfb565b5b509050611e249190611e28565b5090565b5b80821115611e41576000816000905550600101611e29565b5090565b6000611e58611e5384612cac565b612c7b565b905082815260208101848484011115611e7057600080fd5b611e7b848285612e7e565b509392505050565b6000611e96611e9184612cdc565b612c7b565b905082815260208101848484011115611eae57600080fd5b611eb9848285612e7e565b509392505050565b600081359050611ed081613039565b92915050565b600081359050611ee581613050565b92915050565b600081359050611efa81613067565b92915050565b600081519050611f0f81613067565b92915050565b600082601f830112611f2657600080fd5b8135611f36848260208601611e45565b91505092915050565b600082601f830112611f5057600080fd5b8135611f60848260208601611e83565b91505092915050565b600081359050611f788161307e565b92915050565b600060208284031215611f9057600080fd5b6000611f9e84828501611ec1565b91505092915050565b60008060408385031215611fba57600080fd5b6000611fc885828601611ec1565b9250506020611fd985828601611ec1565b9150509250929050565b600080600060608486031215611ff857600080fd5b600061200686828701611ec1565b935050602061201786828701611ec1565b925050604061202886828701611f69565b9150509250925092565b6000806000806080858703121561204857600080fd5b600061205687828801611ec1565b945050602061206787828801611ec1565b935050604061207887828801611f69565b925050606085013567ffffffffffffffff81111561209557600080fd5b6120a187828801611f15565b91505092959194509250565b600080604083850312156120c057600080fd5b60006120ce85828601611ec1565b92505060206120df85828601611ed6565b9150509250929050565b600080604083850312156120fc57600080fd5b600061210a85828601611ec1565b925050602083013567ffffffffffffffff81111561212757600080fd5b61213385828601611f3f565b9150509250929050565b6000806040838503121561215057600080fd5b600061215e85828601611ec1565b925050602061216f85828601611f69565b9150509250929050565b60006020828403121561218b57600080fd5b600061219984828501611eeb565b91505092915050565b6000602082840312156121b457600080fd5b60006121c284828501611f00565b91505092915050565b6000602082840312156121dd57600080fd5b60006121eb84828501611f69565b91505092915050565b6121fd81612e0a565b82525050565b61220c81612e1c565b82525050565b600061221d82612d0c565b6122278185612d22565b9350612237818560208601612e8d565b61224081613028565b840191505092915050565b600061225682612d17565b6122608185612d33565b9350612270818560208601612e8d565b61227981613028565b840191505092915050565b600061228f82612d17565b6122998185612d44565b93506122a9818560208601612e8d565b80840191505092915050565b60006122c2603283612d33565b91507f4552433732313a207472616e7366657220746f206e6f6e20455243373231526560008301527f63656976657220696d706c656d656e74657200000000000000000000000000006020830152604082019050919050565b6000612328602683612d33565b91507f4f776e61626c653a206e6577206f776e657220697320746865207a65726f206160008301527f64647265737300000000000000000000000000000000000000000000000000006020830152604082019050919050565b600061238e601c83612d33565b91507f4552433732313a20746f6b656e20616c7265616479206d696e746564000000006000830152602082019050919050565b60006123ce602483612d33565b91507f4552433732313a207472616e7366657220746f20746865207a65726f2061646460008301527f72657373000000000000000000000000000000000000000000000000000000006020830152604082019050919050565b6000612434601983612d33565b91507f4552433732313a20617070726f766520746f2063616c6c6572000000000000006000830152602082019050919050565b6000612474602c83612d33565b91507f4552433732313a206f70657261746f7220717565727920666f72206e6f6e657860008301527f697374656e7420746f6b656e00000000000000000000000000000000000000006020830152604082019050919050565b60006124da603883612d33565b91507f4552433732313a20617070726f76652063616c6c6572206973206e6f74206f7760008301527f6e6572206e6f7220617070726f76656420666f7220616c6c00000000000000006020830152604082019050919050565b6000612540602a83612d33565b91507f4552433732313a2062616c616e636520717565727920666f7220746865207a6560008301527f726f2061646472657373000000000000000000000000000000000000000000006020830152604082019050919050565b60006125a6602983612d33565b91507f4552433732313a206f776e657220717565727920666f72206e6f6e657869737460008301527f656e7420746f6b656e00000000000000000000000000000000000000000000006020830152604082019050919050565b600061260c602e83612d33565b91507f45524337323155524953746f726167653a2055524920736574206f66206e6f6e60008301527f6578697374656e7420746f6b656e0000000000000000000000000000000000006020830152604082019050919050565b6000612672602083612d33565b91507f4552433732313a206d696e7420746f20746865207a65726f20616464726573736000830152602082019050919050565b60006126b2603183612d33565b91507f45524337323155524953746f726167653a2055524920717565727920666f722060008301527f6e6f6e6578697374656e7420746f6b656e0000000000000000000000000000006020830152604082019050919050565b6000612718602c83612d33565b91507f4552433732313a20617070726f76656420717565727920666f72206e6f6e657860008301527f697374656e7420746f6b656e00000000000000000000000000000000000000006020830152604082019050919050565b600061277e602083612d33565b91507f4f776e61626c653a2063616c6c6572206973206e6f7420746865206f776e65726000830152602082019050919050565b60006127be602983612d33565b91507f4552433732313a207472616e73666572206f6620746f6b656e2074686174206960008301527f73206e6f74206f776e00000000000000000000000000000000000000000000006020830152604082019050919050565b6000612824602f83612d33565b91507f4552433732314d657461646174613a2055524920717565727920666f72206e6f60008301527f6e6578697374656e7420746f6b656e00000000000000000000000000000000006020830152604082019050919050565b600061288a602183612d33565b91507f4552433732313a20617070726f76616c20746f2063757272656e74206f776e6560008301527f72000000000000000000000000000000000000000000000000000000000000006020830152604082019050919050565b60006128f0603183612d33565b91507f4552433732313a207472616e736665722063616c6c6572206973206e6f74206f60008301527f776e6572206e6f7220617070726f7665640000000000000000000000000000006020830152604082019050919050565b61295281612e74565b82525050565b60006129648285612284565b91506129708284612284565b91508190509392505050565b600060208201905061299160008301846121f4565b92915050565b60006080820190506129ac60008301876121f4565b6129b960208301866121f4565b6129c66040830185612949565b81810360608301526129d88184612212565b905095945050505050565b60006020820190506129f86000830184612203565b92915050565b60006020820190508181036000830152612a18818461224b565b905092915050565b60006020820190508181036000830152612a39816122b5565b9050919050565b60006020820190508181036000830152612a598161231b565b9050919050565b60006020820190508181036000830152612a7981612381565b9050919050565b60006020820190508181036000830152612a99816123c1565b9050919050565b60006020820190508181036000830152612ab981612427565b9050919050565b60006020820190508181036000830152612ad981612467565b9050919050565b60006020820190508181036000830152612af9816124cd565b9050919050565b60006020820190508181036000830152612b1981612533565b9050919050565b60006020820190508181036000830152612b3981612599565b9050919050565b60006020820190508181036000830152612b59816125ff565b9050919050565b60006020820190508181036000830152612b7981612665565b9050919050565b60006020820190508181036000830152612b99816126a5565b9050919050565b60006020820190508181036000830152612bb98161270b565b9050919050565b60006020820190508181036000830152612bd981612771565b9050919050565b60006020820190508181036000830152612bf9816127b1565b9050919050565b60006020820190508181036000830152612c1981612817565b9050919050565b60006020820190508181036000830152612c398161287d565b9050919050565b60006020820190508181036000830152612c59816128e3565b9050919050565b6000602082019050612c756000830184612949565b92915050565b6000604051905081810181811067ffffffffffffffff82111715612ca257612ca1612ff9565b5b8060405250919050565b600067ffffffffffffffff821115612cc757612cc6612ff9565b5b601f19601f8301169050602081019050919050565b600067ffffffffffffffff821115612cf757612cf6612ff9565b5b601f19601f8301169050602081019050919050565b600081519050919050565b600081519050919050565b600082825260208201905092915050565b600082825260208201905092915050565b600081905092915050565b6000612d5a82612e74565b9150612d6583612e74565b9250827fffffffffffffffffffffffffffffffffffffffffffffffffffffffffffffffff03821115612d9a57612d99612f6c565b5b828201905092915050565b6000612db082612e74565b9150612dbb83612e74565b925082612dcb57612dca612f9b565b5b828204905092915050565b6000612de182612e74565b9150612dec83612e74565b925082821015612dff57612dfe612f6c565b5b828203905092915050565b6000612e1582612e54565b9050919050565b60008115159050919050565b60007fffffffff0000000000000000000000000000000000000000000000000000000082169050919050565b600073ffffffffffffffffffffffffffffffffffffffff82169050919050565b6000819050919050565b82818337600083830152505050565b60005b83811015612eab578082015181840152602081019050612e90565b83811115612eba576000848401525b50505050565b60006002820490506001821680612ed857607f821691505b60208210811415612eec57612eeb612fca565b5b50919050565b6000612efd82612e74565b91507fffffffffffffffffffffffffffffffffffffffffffffffffffffffffffffffff821415612f3057612f2f612f6c565b5b600182019050919050565b6000612f4682612e74565b9150612f5183612e74565b925082612f6157612f60612f9b565b5b828206905092915050565b7f4e487b7100000000000000000000000000000000000000000000000000000000600052601160045260246000fd5b7f4e487b7100000000000000000000000000000000000000000000000000000000600052601260045260246000fd5b7f4e487b7100000000000000000000000000000000000000000000000000000000600052602260045260246000fd5b7f4e487b7100000000000000000000000000000000000000000000000000000000600052604160045260246000fd5b6000601f19601f8301169050919050565b61304281612e0a565b811461304d57600080fd5b50565b61305981612e1c565b811461306457600080fd5b50565b61307081612e28565b811461307b57600080fd5b50565b61308781612e74565b811461309257600080fd5b5056fe68747470733a2f2f636f6e74726163742d616269732e6865726f6b756170702e636f6d2f6170692f636f6e74726163742f68747470733a2f2f636f6e74726163742d616269732e6865726f6b756170702e636f6d2f6170692f746f6b656e2fa26469706673582212208d5c189e1f50f1fb1b80af9c813032ec2b26b47d761b1c6ac91daf05e5a6154b64736f6c63430008000033",
  "immutableReferences": {},
  "source": "// contracts/GameItem.sol\r\n// SPDX-License-Identifier: MIT\r\npragma solidity ^0.8.0;\r\n\r\nimport \"../node_modules/@openzeppelin/contracts/token/ERC721/extensions/ERC721URIStorage.sol\";\r\nimport \"../node_modules/@openzeppelin/contracts/token/ERC721/ERC721.sol\";\r\nimport \"../node_modules/@openzeppelin/contracts/utils/Counters.sol\";\r\nimport \"../node_modules/@openzeppelin/contracts/access/Ownable.sol\";\r\n\r\ncontract GameItem is  ERC721URIStorage, Ownable {\r\n    using Counters for Counters.Counter;\r\n    Counters.Counter private _tokenIds;\r\n\r\n    constructor() ERC721(\"GameItem\", \"GIM\") {}\r\n\r\n\r\n    //mapping for querying with an address from server side apps.\r\n    mapping (address => uint256) public ownerQuery;\r\n\r\n    function _baseURI() internal view virtual override returns (string memory) {\r\n        return \"https://contract-abis.herokuapp.com/api/token/\";\r\n    } \r\n    function totalSupply() public view returns (uint256){\r\n        return _tokenIds.current();\r\n    }\r\n    //for opensea\r\n    function baseTokenURI() public pure returns (string memory) {\r\n        return \"https://contract-abis.herokuapp.com/api/token/\";\r\n    }\r\n    //for opensea\r\n    function contractURI() public pure returns (string memory) {\r\n        return \"https://contract-abis.herokuapp.com/api/contract/\";\r\n    }\r\n\r\n    function awardItem(address player, string memory tokenURI)\r\n        public\r\n        onlyOwner\r\n        returns (uint256)\r\n    {\r\n        _tokenIds.increment();\r\n        \r\n        uint256 newItemId = _tokenIds.current();\r\n        _mint(player, newItemId);\r\n        _setTokenURI(newItemId, tokenURI);\r\n        ownerQuery[player] = newItemId;\r\n        return newItemId;\r\n    }\r\n   \r\n}",
  "sourcePath": "C:/Users/Archie/Documents/NFT DAPPS/eth-orb/contracts/EthOrb.sol",
  "compiler": {
    "name": "solc",
    "version": "0.8.0+commit.c7dfd78e.Emscripten.clang"
  },
  "schemaVersion": "3.3.4",
  "updatedAt": "2021-04-05T13:16:58.158Z",
  "networkType": "ethereum",
  "devdoc": {
    "kind": "dev",
    "methods": {
      "approve(address,uint256)": {
        "details": "See {IERC721-approve}."
      },
      "balanceOf(address)": {
        "details": "See {IERC721-balanceOf}."
      },
      "getApproved(uint256)": {
        "details": "See {IERC721-getApproved}."
      },
      "isApprovedForAll(address,address)": {
        "details": "See {IERC721-isApprovedForAll}."
      },
      "name()": {
        "details": "See {IERC721Metadata-name}."
      },
      "owner()": {
        "details": "Returns the address of the current owner."
      },
      "ownerOf(uint256)": {
        "details": "See {IERC721-ownerOf}."
      },
      "renounceOwnership()": {
        "details": "Leaves the contract without owner. It will not be possible to call `onlyOwner` functions anymore. Can only be called by the current owner. NOTE: Renouncing ownership will leave the contract without an owner, thereby removing any functionality that is only available to the owner."
      },
      "safeTransferFrom(address,address,uint256)": {
        "details": "See {IERC721-safeTransferFrom}."
      },
      "safeTransferFrom(address,address,uint256,bytes)": {
        "details": "See {IERC721-safeTransferFrom}."
      },
      "setApprovalForAll(address,bool)": {
        "details": "See {IERC721-setApprovalForAll}."
      },
      "supportsInterface(bytes4)": {
        "details": "See {IERC165-supportsInterface}."
      },
      "symbol()": {
        "details": "See {IERC721Metadata-symbol}."
      },
      "tokenURI(uint256)": {
        "details": "See {IERC721Metadata-tokenURI}."
      },
      "transferFrom(address,address,uint256)": {
        "details": "See {IERC721-transferFrom}."
      },
      "transferOwnership(address)": {
        "details": "Transfers ownership of the contract to a new account (`newOwner`). Can only be called by the current owner."
      }
    },
    "version": 1
  },
  "userdoc": {
    "kind": "user",
    "methods": {},
    "version": 1
  }
}